{
  "contractName": "CustomSupCh",
  "abi": [
    {
      "inputs": [],
      "stateMutability": "nonpayable",
      "type": "constructor"
    },
    {
      "anonymous": false,
      "inputs": [
        {
          "indexed": false,
          "internalType": "string",
          "name": "storedData",
          "type": "string"
        }
      ],
      "name": "LogReceived",
      "type": "event"
    },
    {
      "anonymous": false,
      "inputs": [
        {
          "indexed": false,
          "internalType": "string",
          "name": "storedData",
          "type": "string"
        }
      ],
      "name": "LogSetRequirements",
      "type": "event"
    },
    {
      "anonymous": false,
      "inputs": [
        {
          "indexed": false,
          "internalType": "string",
          "name": "storedData",
          "type": "string"
        }
      ],
      "name": "LogShipped",
      "type": "event"
    },
    {
      "anonymous": false,
      "inputs": [
        {
          "indexed": false,
          "internalType": "string",
          "name": "storedData",
          "type": "string"
        }
      ],
      "name": "LogSold",
      "type": "event"
    },
    {
      "anonymous": false,
      "inputs": [
        {
          "indexed": true,
          "internalType": "address",
          "name": "previousOwner",
          "type": "address"
        },
        {
          "indexed": true,
          "internalType": "address",
          "name": "newOwner",
          "type": "address"
        }
      ],
      "name": "OwnershipTransferred",
      "type": "event"
    },
    {
      "anonymous": false,
      "inputs": [
        {
          "indexed": false,
          "internalType": "uint256",
          "name": "id",
          "type": "uint256"
        },
        {
          "indexed": false,
          "internalType": "string",
          "name": "name",
          "type": "string"
        },
        {
          "indexed": false,
          "internalType": "enum CustomSupCh.State",
          "name": "state",
          "type": "uint8"
        },
        {
          "indexed": false,
          "internalType": "uint256",
          "name": "price",
          "type": "uint256"
        },
        {
          "indexed": false,
          "internalType": "address payable",
          "name": "supplier",
          "type": "address"
        }
      ],
      "name": "ProductCreated",
      "type": "event"
    },
    {
      "anonymous": false,
      "inputs": [
        {
          "indexed": false,
          "internalType": "uint256",
          "name": "id",
          "type": "uint256"
        },
        {
          "indexed": false,
          "internalType": "string",
          "name": "name",
          "type": "string"
        },
        {
          "indexed": false,
          "internalType": "uint256",
          "name": "price",
          "type": "uint256"
        },
        {
          "indexed": false,
          "internalType": "address payable",
          "name": "owner",
          "type": "address"
        }
      ],
      "name": "ProductPurchased",
      "type": "event"
    },
    {
      "anonymous": false,
      "inputs": [
        {
          "indexed": false,
          "internalType": "address",
          "name": "a",
          "type": "address"
        }
      ],
      "name": "WhitelistedEvent",
      "type": "event"
    },
    {
      "inputs": [
        {
          "internalType": "uint256",
          "name": "",
          "type": "uint256"
        }
      ],
      "name": "items",
      "outputs": [
        {
          "internalType": "uint256",
          "name": "id",
          "type": "uint256"
        },
        {
          "internalType": "string",
          "name": "name",
          "type": "string"
        },
        {
          "internalType": "enum CustomSupCh.State",
          "name": "state",
          "type": "uint8"
        },
        {
          "internalType": "uint256",
          "name": "price",
          "type": "uint256"
        },
        {
          "internalType": "address payable",
          "name": "supplier",
          "type": "address"
        }
      ],
      "stateMutability": "view",
      "type": "function",
      "constant": true
    },
    {
      "inputs": [],
      "name": "name",
      "outputs": [
        {
          "internalType": "string",
          "name": "",
          "type": "string"
        }
      ],
      "stateMutability": "view",
      "type": "function",
      "constant": true
    },
    {
      "inputs": [],
      "name": "owner",
      "outputs": [
        {
          "internalType": "address",
          "name": "",
          "type": "address"
        }
      ],
      "stateMutability": "view",
      "type": "function",
      "constant": true
    },
    {
      "inputs": [],
      "name": "renounceOwnership",
      "outputs": [],
      "stateMutability": "nonpayable",
      "type": "function"
    },
    {
      "inputs": [
        {
          "internalType": "address",
          "name": "newOwner",
          "type": "address"
        }
      ],
      "name": "transferOwnership",
      "outputs": [],
      "stateMutability": "nonpayable",
      "type": "function"
    },
    {
      "inputs": [
        {
          "internalType": "address",
          "name": "",
          "type": "address"
        }
      ],
      "name": "whitelistedAddresses",
      "outputs": [
        {
          "internalType": "bool",
          "name": "",
          "type": "bool"
        }
      ],
      "stateMutability": "view",
      "type": "function",
      "constant": true
    },
    {
      "inputs": [
        {
          "internalType": "address",
          "name": "_addressToWhitelist",
          "type": "address"
        }
      ],
      "name": "addWhitelistedUser",
      "outputs": [],
      "stateMutability": "nonpayable",
      "type": "function"
    },
    {
      "inputs": [],
      "name": "whitelisted",
      "outputs": [
        {
          "internalType": "bool",
          "name": "",
          "type": "bool"
        }
      ],
      "stateMutability": "view",
      "type": "function",
      "constant": true
    },
    {
      "inputs": [],
      "name": "getProductCount",
      "outputs": [
        {
          "internalType": "uint256",
          "name": "",
          "type": "uint256"
        }
      ],
      "stateMutability": "view",
      "type": "function",
      "constant": true
    },
    {
      "inputs": [
        {
          "internalType": "string",
          "name": "_name",
          "type": "string"
        },
        {
          "internalType": "uint256",
          "name": "_price",
          "type": "uint256"
        }
      ],
      "name": "createProduct",
      "outputs": [],
      "stateMutability": "nonpayable",
      "type": "function"
    },
    {
      "inputs": [
        {
          "internalType": "uint256",
          "name": "id",
          "type": "uint256"
        }
      ],
      "name": "buyItem",
      "outputs": [],
      "stateMutability": "payable",
      "type": "function",
      "payable": true
    },
    {
      "inputs": [
        {
          "internalType": "uint256",
          "name": "id",
          "type": "uint256"
        }
      ],
      "name": "shipItem",
      "outputs": [],
      "stateMutability": "nonpayable",
      "type": "function"
    }
  ],
  "bytecode": "0x6080604052600060025534801561001557600080fd5b5061003261002761003760201b60201c565b61003f60201b60201c565b610103565b600033905090565b60008060009054906101000a900473ffffffffffffffffffffffffffffffffffffffff169050816000806101000a81548173ffffffffffffffffffffffffffffffffffffffff021916908373ffffffffffffffffffffffffffffffffffffffff1602179055508173ffffffffffffffffffffffffffffffffffffffff168173ffffffffffffffffffffffffffffffffffffffff167f8be0079c531659141344cd1fd0a4f28419497f9722a3daafe3b4186f6b6457e060405160405180910390a35050565b6116ad806101126000396000f3fe6080604052600436106100a75760003560e01c8063b231e25d11610064578063b231e25d146101ac578063bfb231d2146101d5578063e7fb74c714610216578063e9300c6c14610232578063f2fde38b1461025b578063f61c899a14610284576100a7565b806306c933d8146100ac57806306fdde03146100e95780633d9287fa146101145780634a348da91461013f578063715018a61461016a5780638da5cb5b14610181575b600080fd5b3480156100b857600080fd5b506100d360048036038101906100ce9190610e73565b6102ad565b6040516100e09190610ebb565b60405180910390f35b3480156100f557600080fd5b506100fe6102cd565b60405161010b9190610f6f565b60405180910390f35b34801561012057600080fd5b5061012961035b565b6040516101369190610ebb565b60405180910390f35b34801561014b57600080fd5b506101546103f2565b6040516101619190610faa565b60405180910390f35b34801561017657600080fd5b5061017f6103fc565b005b34801561018d57600080fd5b50610196610484565b6040516101a39190610fd4565b60405180910390f35b3480156101b857600080fd5b506101d360048036038101906101ce9190610e73565b6104ad565b005b3480156101e157600080fd5b506101fc60048036038101906101f7919061101b565b6105bb565b60405161020d9594939291906110e0565b60405180910390f35b610230600480360381019061022b919061101b565b6106a6565b005b34801561023e57600080fd5b506102596004803603810190610254919061126f565b610841565b005b34801561026757600080fd5b50610282600480360381019061027d9190610e73565b610a5a565b005b34801561029057600080fd5b506102ab60048036038101906102a6919061101b565b610b52565b005b60046020528060005260406000206000915054906101000a900460ff1681565b600180546102da906112fa565b80601f0160208091040260200160405190810160405280929190818152602001828054610306906112fa565b80156103535780601f1061032857610100808354040283529160200191610353565b820191906000526020600020905b81548152906001019060200180831161033657829003601f168201915b505050505081565b600033600460008273ffffffffffffffffffffffffffffffffffffffff1673ffffffffffffffffffffffffffffffffffffffff16815260200190815260200160002060009054906101000a900460ff166103ea576040517f08c379a00000000000000000000000000000000000000000000000000000000081526004016103e190611378565b60405180910390fd5b600191505090565b6000600254905090565b610404610c92565b73ffffffffffffffffffffffffffffffffffffffff16610422610484565b73ffffffffffffffffffffffffffffffffffffffff1614610478576040517f08c379a000000000000000000000000000000000000000000000000000000000815260040161046f906113e4565b60405180910390fd5b6104826000610c9a565b565b60008060009054906101000a900473ffffffffffffffffffffffffffffffffffffffff16905090565b6104b5610c92565b73ffffffffffffffffffffffffffffffffffffffff166104d3610484565b73ffffffffffffffffffffffffffffffffffffffff1614610529576040517f08c379a0000000000000000000000000000000000000000000000000000000008152600401610520906113e4565b60405180910390fd5b6001600460008373ffffffffffffffffffffffffffffffffffffffff1673ffffffffffffffffffffffffffffffffffffffff16815260200190815260200160002060006101000a81548160ff0219169083151502179055507f99a12677bf23dd40c0efc34082bb8d67012091286f3fc4736bef1904a651d142816040516105b09190610fd4565b60405180910390a150565b60036020528060005260406000206000915090508060000154908060010180546105e4906112fa565b80601f0160208091040260200160405190810160405280929190818152602001828054610610906112fa565b801561065d5780601f106106325761010080835404028352916020019161065d565b820191906000526020600020905b81548152906001019060200180831161064057829003601f168201915b5050505050908060020160009054906101000a900460ff16908060030154908060040160009054906101000a900473ffffffffffffffffffffffffffffffffffffffff16905085565b6003600082815260200190815260200160002060030154803410156106ca57600080fd5b6000806003600085815260200190815260200160002060040160009054906101000a900473ffffffffffffffffffffffffffffffffffffffff1673ffffffffffffffffffffffffffffffffffffffff16600360008681526020019081526020016000206003015460405161073d90611435565b60006040518083038185875af1925050503d806000811461077a576040519150601f19603f3d011682016040523d82523d6000602084013e61077f565b606091505b5091509150816107c4576040517f08c379a00000000000000000000000000000000000000000000000000000000081526004016107bb90611496565b60405180910390fd5b60016003600086815260200190815260200160002060020160006101000a81548160ff021916908360028111156107fe576107fd611048565b5b02179055507f01b3a36fe7121132353fcc402405e40123ac7977b95a608ab025b71bd438ea156001604051610833919061154b565b60405180910390a150505050565b33600460008273ffffffffffffffffffffffffffffffffffffffff1673ffffffffffffffffffffffffffffffffffffffff16815260200190815260200160002060009054906101000a900460ff166108ce576040517f08c379a00000000000000000000000000000000000000000000000000000000081526004016108c590611378565b60405180910390fd5b60008351116108dc57600080fd5b600082116108e957600080fd5b600260008154809291906108fc9061159c565b91905055506040518060a0016040528060025481526020018481526020016000600281111561092e5761092d611048565b5b81526020018381526020013373ffffffffffffffffffffffffffffffffffffffff1681525060036000600254815260200190815260200160002060008201518160000155602082015181600101908051906020019061098e929190610d5e565b5060408201518160020160006101000a81548160ff021916908360028111156109ba576109b9611048565b5b02179055506060820151816003015560808201518160040160006101000a81548173ffffffffffffffffffffffffffffffffffffffff021916908373ffffffffffffffffffffffffffffffffffffffff1602179055509050507f371ae3b6d63fc0ae37ae94a9b756cae7c080fab9a7fdfff7303341e0922fcbd96002548460008533604051610a4d9594939291906110e0565b60405180910390a1505050565b610a62610c92565b73ffffffffffffffffffffffffffffffffffffffff16610a80610484565b73ffffffffffffffffffffffffffffffffffffffff1614610ad6576040517f08c379a0000000000000000000000000000000000000000000000000000000008152600401610acd906113e4565b60405180910390fd5b600073ffffffffffffffffffffffffffffffffffffffff168173ffffffffffffffffffffffffffffffffffffffff161415610b46576040517f08c379a0000000000000000000000000000000000000000000000000000000008152600401610b3d90611657565b60405180910390fd5b610b4f81610c9a565b50565b8060016002811115610b6757610b66611048565b5b6003600083815260200190815260200160002060020160009054906101000a900460ff166002811115610b9d57610b9c611048565b5b14610ba757600080fd5b6003600083815260200190815260200160002060040160009054906101000a900473ffffffffffffffffffffffffffffffffffffffff168073ffffffffffffffffffffffffffffffffffffffff163373ffffffffffffffffffffffffffffffffffffffff1614610c1657600080fd5b60026003600085815260200190815260200160002060020160006101000a81548160ff02191690836002811115610c5057610c4f611048565b5b02179055507fae8c24529df48c91174632dd03a6fd8a87ea8a505eb690c4269275c81077bba46001604051610c85919061154b565b60405180910390a1505050565b600033905090565b60008060009054906101000a900473ffffffffffffffffffffffffffffffffffffffff169050816000806101000a81548173ffffffffffffffffffffffffffffffffffffffff021916908373ffffffffffffffffffffffffffffffffffffffff1602179055508173ffffffffffffffffffffffffffffffffffffffff168173ffffffffffffffffffffffffffffffffffffffff167f8be0079c531659141344cd1fd0a4f28419497f9722a3daafe3b4186f6b6457e060405160405180910390a35050565b828054610d6a906112fa565b90600052602060002090601f016020900481019282610d8c5760008555610dd3565b82601f10610da557805160ff1916838001178555610dd3565b82800160010185558215610dd3579182015b82811115610dd2578251825591602001919060010190610db7565b5b509050610de09190610de4565b5090565b5b80821115610dfd576000816000905550600101610de5565b5090565b6000604051905090565b600080fd5b600080fd5b600073ffffffffffffffffffffffffffffffffffffffff82169050919050565b6000610e4082610e15565b9050919050565b610e5081610e35565b8114610e5b57600080fd5b50565b600081359050610e6d81610e47565b92915050565b600060208284031215610e8957610e88610e0b565b5b6000610e9784828501610e5e565b91505092915050565b60008115159050919050565b610eb581610ea0565b82525050565b6000602082019050610ed06000830184610eac565b92915050565b600081519050919050565b600082825260208201905092915050565b60005b83811015610f10578082015181840152602081019050610ef5565b83811115610f1f576000848401525b50505050565b6000601f19601f8301169050919050565b6000610f4182610ed6565b610f4b8185610ee1565b9350610f5b818560208601610ef2565b610f6481610f25565b840191505092915050565b60006020820190508181036000830152610f898184610f36565b905092915050565b6000819050919050565b610fa481610f91565b82525050565b6000602082019050610fbf6000830184610f9b565b92915050565b610fce81610e35565b82525050565b6000602082019050610fe96000830184610fc5565b92915050565b610ff881610f91565b811461100357600080fd5b50565b60008135905061101581610fef565b92915050565b60006020828403121561103157611030610e0b565b5b600061103f84828501611006565b91505092915050565b7f4e487b7100000000000000000000000000000000000000000000000000000000600052602160045260246000fd5b6003811061108857611087611048565b5b50565b600081905061109982611077565b919050565b60006110a98261108b565b9050919050565b6110b98161109e565b82525050565b60006110ca82610e15565b9050919050565b6110da816110bf565b82525050565b600060a0820190506110f56000830188610f9b565b81810360208301526111078187610f36565b905061111660408301866110b0565b6111236060830185610f9b565b61113060808301846110d1565b9695505050505050565b600080fd5b600080fd5b7f4e487b7100000000000000000000000000000000000000000000000000000000600052604160045260246000fd5b61117c82610f25565b810181811067ffffffffffffffff8211171561119b5761119a611144565b5b80604052505050565b60006111ae610e01565b90506111ba8282611173565b919050565b600067ffffffffffffffff8211156111da576111d9611144565b5b6111e382610f25565b9050602081019050919050565b82818337600083830152505050565b600061121261120d846111bf565b6111a4565b90508281526020810184848401111561122e5761122d61113f565b5b6112398482856111f0565b509392505050565b600082601f8301126112565761125561113a565b5b81356112668482602086016111ff565b91505092915050565b6000806040838503121561128657611285610e0b565b5b600083013567ffffffffffffffff8111156112a4576112a3610e10565b5b6112b085828601611241565b92505060206112c185828601611006565b9150509250929050565b7f4e487b7100000000000000000000000000000000000000000000000000000000600052602260045260246000fd5b6000600282049050600182168061131257607f821691505b60208210811415611326576113256112cb565b5b50919050565b7f596f7520617265206e6f742057686974656c6973746564000000000000000000600082015250565b6000611362601783610ee1565b915061136d8261132c565b602082019050919050565b6000602082019050818103600083015261139181611355565b9050919050565b7f4f776e61626c653a2063616c6c6572206973206e6f7420746865206f776e6572600082015250565b60006113ce602083610ee1565b91506113d982611398565b602082019050919050565b600060208201905081810360008301526113fd816113c1565b9050919050565b600081905092915050565b50565b600061141f600083611404565b915061142a8261140f565b600082019050919050565b600061144082611412565b9150819050919050565b7f4661696c65640000000000000000000000000000000000000000000000000000600082015250565b6000611480600683610ee1565b915061148b8261144a565b602082019050919050565b600060208201905081810360008301526114af81611473565b9050919050565b60008190508160005260206000209050919050565b600081546114d8816112fa565b6114e28186610ee1565b945060018216600081146114fd576001811461150f57611542565b60ff1983168652602086019350611542565b611518856114b6565b60005b8381101561153a5781548189015260018201915060208101905061151b565b808801955050505b50505092915050565b6000602082019050818103600083015261156581846114cb565b905092915050565b7f4e487b7100000000000000000000000000000000000000000000000000000000600052601160045260246000fd5b60006115a782610f91565b91507fffffffffffffffffffffffffffffffffffffffffffffffffffffffffffffffff8214156115da576115d961156d565b5b600182019050919050565b7f4f776e61626c653a206e6577206f776e657220697320746865207a65726f206160008201527f6464726573730000000000000000000000000000000000000000000000000000602082015250565b6000611641602683610ee1565b915061164c826115e5565b604082019050919050565b6000602082019050818103600083015261167081611634565b905091905056fea2646970667358221220441d6a220f6fb66e70bb99e2b65ed590195dcb353b42403bc53d42d15097749164736f6c634300080b0033",
  "immutableReferences": {},
  "source": "// SPDX-License-Identifier: MIT\r\npragma solidity ^0.8.0;\r\n\r\n// import \"./Whitelist.sol\";\r\n// import \"./Ownable.sol\";\r\n\r\nimport \"@openzeppelin/contracts/access/Ownable.sol\";\r\n\r\ncontract CustomSupCh is Ownable {\r\n\r\n  string public name;\r\n  uint private productCount = 0;\r\n  mapping(uint => Product) public items;\r\n  enum State{Create,Sold,Shipped}\r\n\r\n  struct Product {\r\n      uint id;\r\n      string name;\r\n      State state;\r\n      uint price;\r\n      address payable supplier;\r\n  }\r\n\r\n  mapping(address => bool) public whitelistedAddresses;\r\n\r\n  event WhitelistedEvent(address a);\r\n\r\n  // <LogSetRequirements event>\r\n  event LogSetRequirements(string storedData);\r\n  \r\n\r\n  // <LogSold event>\r\n  event LogSold(string storedData);\r\n\r\n  // <LogShipped event>\r\n  event LogShipped(string storedData);\r\n\r\n  // <LogReceived event>\r\n  event LogReceived(string storedData);\r\n\r\n  event ProductCreated(\r\n      uint id,\r\n      string name,\r\n      State state,\r\n      uint price,\r\n      address payable supplier\r\n  );\r\n\r\n  event ProductPurchased(\r\n      uint id,\r\n      string name,\r\n      uint price,\r\n      address payable owner\r\n  );\r\n\r\n  constructor () {\r\n  }\r\n\r\n    function addWhitelistedUser(address _addressToWhitelist) public onlyOwner {\r\n        whitelistedAddresses[_addressToWhitelist] = true;\r\n        emit WhitelistedEvent(_addressToWhitelist);\r\n    }\r\n\r\n    modifier isWhitelisted(address _address) {\r\n        require(whitelistedAddresses[_address], \"You are not Whitelisted\");\r\n        _;\r\n    }\r\n\r\n    function whitelisted() public view isWhitelisted(msg.sender) returns(bool) {\r\n        return(true);\r\n    }\r\n\r\n\r\n  modifier verifyCaller (address _address) {\r\n    require (msg.sender == _address);\r\n    _;\r\n  }\r\n\r\n  modifier paidEnough(uint _price) {\r\n    require(msg.value >= _price);\r\n    _;\r\n  }\r\n  \r\n  // //modifier SetRequirements\r\n  // modifier SetRequirements(uint _id) {\r\n  // require(items[_id].state == State.SetRequirements);\r\n  // require(items[_id].supplier != address(0));\r\n  // _;\r\n  // }\r\n\r\n  //modifier sold\r\n  modifier sold(uint _id) {\r\n    require( items[_id].state== State.Sold);\r\n    _;\r\n  }\r\n\r\n  //modifier shipped\r\n  modifier shipped(uint _id) {\r\n    require(items[_id].state == State.Shipped);\r\n    _;\r\n  }\r\n\r\n  //modifier received\r\n  // modifier received(uint _id) {\r\n  //   require(items[_id].state == State.Received);\r\n  //   _;\r\n  // }\r\n\r\n  function getProductCount() public view returns(uint256){\r\n    return(productCount);\r\n  }\r\n\r\n  function createProduct(string memory _name, uint _price) public isWhitelisted(msg.sender) { //onlyWhitelisted\r\n    // Require a valid name\r\n    require(bytes(_name).length > 0);\r\n    // Require a valid price\r\n    require(_price > 0);\r\n    // Increment product count\r\n    productCount ++;\r\n    // Create the product\r\n    items[productCount] = Product(productCount, _name, State.Create, _price, payable(msg.sender));\r\n    // Trigger an event\r\n    emit ProductCreated(productCount, _name, State.Create, _price, payable(msg.sender));\r\n  }\r\n\r\n  // function addSupplier(address su) public onlyOwner{\r\n  //   addWhitelistedUser(su);\r\n  //   // addAddressToWhitelist(su);\r\n  //   emit WhitelistedEvent(su);\r\n  // }\r\n\r\n  function buyItem(uint id) payable public paidEnough(items[id].price){\r\n    (bool sent, bytes memory data) = items[id].supplier.call{value: items[id].price}(\"\");\r\n    require(sent, \"Failed\");\r\n    // items[id].buyer = payable(msg.sender);\r\n    items[id].state=State.Sold;\r\n    emit LogSold(name);\r\n  }\r\n\r\n  function shipItem(uint id) public sold(id) verifyCaller(items[id].supplier){\r\n    items[id].state=State.Shipped;\r\n    emit LogShipped(name);\r\n  }\r\n\r\n  // function receiveItem(uint id) public shipped(id) verifyCaller(items[id].buyer) {\r\n  // items[id].state=State.Received;\r\n  // emit LogReceived(name);\r\n  // }\r\n\r\n}\r\n    \r\n    \r\n",
  "sourcePath": "/home/maria/Documents/blockchain-developer-bootcamp-final-project/contracts/CustomSupCh.sol",
  "compiler": {
    "name": "solc",
    "version": "0.8.11+commit.d7f03943.Emscripten.clang"
  },
  "schemaVersion": "3.4.3",
  "updatedAt": "2022-01-15T11:54:24.341Z",
  "networkType": "ethereum",
  "devdoc": {
    "kind": "dev",
    "methods": {
      "owner()": {
        "details": "Returns the address of the current owner."
      },
      "renounceOwnership()": {
        "details": "Leaves the contract without owner. It will not be possible to call `onlyOwner` functions anymore. Can only be called by the current owner. NOTE: Renouncing ownership will leave the contract without an owner, thereby removing any functionality that is only available to the owner."
      },
      "transferOwnership(address)": {
        "details": "Transfers ownership of the contract to a new account (`newOwner`). Can only be called by the current owner."
      }
    },
    "version": 1
  },
  "userdoc": {
    "kind": "user",
    "methods": {},
    "version": 1
  }
}