{
  "contractName": "Whitelist",
  "abi": [
    {
      "anonymous": false,
      "inputs": [
        {
          "indexed": true,
          "internalType": "address",
          "name": "previousOwner",
          "type": "address"
        },
        {
          "indexed": true,
          "internalType": "address",
          "name": "newOwner",
          "type": "address"
        }
      ],
      "name": "OwnershipTransferred",
      "type": "event"
    },
    {
      "anonymous": false,
      "inputs": [
        {
          "indexed": false,
          "internalType": "address",
          "name": "addr",
          "type": "address"
        }
      ],
      "name": "WhitelistedAddressAdded",
      "type": "event"
    },
    {
      "anonymous": false,
      "inputs": [
        {
          "indexed": false,
          "internalType": "address",
          "name": "addr",
          "type": "address"
        }
      ],
      "name": "WhitelistedAddressRemoved",
      "type": "event"
    },
    {
      "inputs": [],
      "name": "owner",
      "outputs": [
        {
          "internalType": "address",
          "name": "",
          "type": "address"
        }
      ],
      "stateMutability": "view",
      "type": "function"
    },
    {
      "inputs": [],
      "name": "renounceOwnership",
      "outputs": [],
      "stateMutability": "nonpayable",
      "type": "function"
    },
    {
      "inputs": [
        {
          "internalType": "address",
          "name": "newOwner",
          "type": "address"
        }
      ],
      "name": "transferOwnership",
      "outputs": [],
      "stateMutability": "nonpayable",
      "type": "function"
    },
    {
      "inputs": [
        {
          "internalType": "address",
          "name": "",
          "type": "address"
        }
      ],
      "name": "whitelist",
      "outputs": [
        {
          "internalType": "bool",
          "name": "",
          "type": "bool"
        }
      ],
      "stateMutability": "view",
      "type": "function"
    },
    {
      "inputs": [
        {
          "internalType": "address",
          "name": "addr",
          "type": "address"
        }
      ],
      "name": "addAddressToWhitelist",
      "outputs": [
        {
          "internalType": "bool",
          "name": "success",
          "type": "bool"
        }
      ],
      "stateMutability": "nonpayable",
      "type": "function"
    },
    {
      "inputs": [
        {
          "internalType": "address[]",
          "name": "addrs",
          "type": "address[]"
        }
      ],
      "name": "addAddressesToWhitelist",
      "outputs": [
        {
          "internalType": "bool",
          "name": "success",
          "type": "bool"
        }
      ],
      "stateMutability": "nonpayable",
      "type": "function"
    },
    {
      "inputs": [
        {
          "internalType": "address",
          "name": "addr",
          "type": "address"
        }
      ],
      "name": "removeAddressFromWhitelist",
      "outputs": [
        {
          "internalType": "bool",
          "name": "success",
          "type": "bool"
        }
      ],
      "stateMutability": "nonpayable",
      "type": "function"
    },
    {
      "inputs": [
        {
          "internalType": "address[]",
          "name": "addrs",
          "type": "address[]"
        }
      ],
      "name": "removeAddressesFromWhitelist",
      "outputs": [
        {
          "internalType": "bool",
          "name": "success",
          "type": "bool"
        }
      ],
      "stateMutability": "nonpayable",
      "type": "function"
    }
  ],
  "bytecode": "0x608060405234801561001057600080fd5b5061002d61002261003260201b60201c565b61003a60201b60201c565b6100fe565b600033905090565b60008060009054906101000a900473ffffffffffffffffffffffffffffffffffffffff169050816000806101000a81548173ffffffffffffffffffffffffffffffffffffffff021916908373ffffffffffffffffffffffffffffffffffffffff1602179055508173ffffffffffffffffffffffffffffffffffffffff168173ffffffffffffffffffffffffffffffffffffffff167f8be0079c531659141344cd1fd0a4f28419497f9722a3daafe3b4186f6b6457e060405160405180910390a35050565b610d5d8061010d6000396000f3fe608060405234801561001057600080fd5b50600436106100885760003560e01c80638da5cb5b1161005b5780638da5cb5b146101275780639b19251a14610145578063e2ec6ec314610175578063f2fde38b146101a557610088565b806324953eaa1461008d578063286dd3f5146100bd578063715018a6146100ed5780637b9417c8146100f7575b600080fd5b6100a760048036038101906100a29190610a91565b6101c1565b6040516100b49190610af5565b60405180910390f35b6100d760048036038101906100d29190610b10565b610291565b6040516100e49190610af5565b60405180910390f35b6100f56103fa565b005b610111600480360381019061010c9190610b10565b610482565b60405161011e9190610af5565b60405180910390f35b61012f6105e9565b60405161013c9190610b4c565b60405180910390f35b61015f600480360381019061015a9190610b10565b610612565b60405161016c9190610af5565b60405180910390f35b61018f600480360381019061018a9190610a91565b610632565b60405161019c9190610af5565b60405180910390f35b6101bf60048036038101906101ba9190610b10565b610702565b005b60006101cb6107fa565b73ffffffffffffffffffffffffffffffffffffffff166101e96105e9565b73ffffffffffffffffffffffffffffffffffffffff161461023f576040517f08c379a000000000000000000000000000000000000000000000000000000000815260040161023690610bc4565b60405180910390fd5b60005b825181101561028b5761026e83828151811061026157610260610be4565b5b6020026020010151610291565b1561027857600191505b808061028390610c4c565b915050610242565b50919050565b600061029b6107fa565b73ffffffffffffffffffffffffffffffffffffffff166102b96105e9565b73ffffffffffffffffffffffffffffffffffffffff161461030f576040517f08c379a000000000000000000000000000000000000000000000000000000000815260040161030690610bc4565b60405180910390fd5b600160008373ffffffffffffffffffffffffffffffffffffffff1673ffffffffffffffffffffffffffffffffffffffff16815260200190815260200160002060009054906101000a900460ff16156103f5576000600160008473ffffffffffffffffffffffffffffffffffffffff1673ffffffffffffffffffffffffffffffffffffffff16815260200190815260200160002060006101000a81548160ff0219169083151502179055507ff1abf01a1043b7c244d128e8595cf0c1d10743b022b03a02dffd8ca3bf729f5a826040516103e89190610b4c565b60405180910390a1600190505b919050565b6104026107fa565b73ffffffffffffffffffffffffffffffffffffffff166104206105e9565b73ffffffffffffffffffffffffffffffffffffffff1614610476576040517f08c379a000000000000000000000000000000000000000000000000000000000815260040161046d90610bc4565b60405180910390fd5b6104806000610802565b565b600061048c6107fa565b73ffffffffffffffffffffffffffffffffffffffff166104aa6105e9565b73ffffffffffffffffffffffffffffffffffffffff1614610500576040517f08c379a00000000000000000000000000000000000000000000000000000000081526004016104f790610bc4565b60405180910390fd5b600160008373ffffffffffffffffffffffffffffffffffffffff1673ffffffffffffffffffffffffffffffffffffffff16815260200190815260200160002060009054906101000a900460ff166105e45760018060008473ffffffffffffffffffffffffffffffffffffffff1673ffffffffffffffffffffffffffffffffffffffff16815260200190815260200160002060006101000a81548160ff0219169083151502179055507fd1bba68c128cc3f427e5831b3c6f99f480b6efa6b9e80c757768f6124158cc3f826040516105d79190610b4c565b60405180910390a1600190505b919050565b60008060009054906101000a900473ffffffffffffffffffffffffffffffffffffffff16905090565b60016020528060005260406000206000915054906101000a900460ff1681565b600061063c6107fa565b73ffffffffffffffffffffffffffffffffffffffff1661065a6105e9565b73ffffffffffffffffffffffffffffffffffffffff16146106b0576040517f08c379a00000000000000000000000000000000000000000000000000000000081526004016106a790610bc4565b60405180910390fd5b60005b82518110156106fc576106df8382815181106106d2576106d1610be4565b5b6020026020010151610482565b156106e957600191505b80806106f490610c4c565b9150506106b3565b50919050565b61070a6107fa565b73ffffffffffffffffffffffffffffffffffffffff166107286105e9565b73ffffffffffffffffffffffffffffffffffffffff161461077e576040517f08c379a000000000000000000000000000000000000000000000000000000000815260040161077590610bc4565b60405180910390fd5b600073ffffffffffffffffffffffffffffffffffffffff168173ffffffffffffffffffffffffffffffffffffffff1614156107ee576040517f08c379a00000000000000000000000000000000000000000000000000000000081526004016107e590610d07565b60405180910390fd5b6107f781610802565b50565b600033905090565b60008060009054906101000a900473ffffffffffffffffffffffffffffffffffffffff169050816000806101000a81548173ffffffffffffffffffffffffffffffffffffffff021916908373ffffffffffffffffffffffffffffffffffffffff1602179055508173ffffffffffffffffffffffffffffffffffffffff168173ffffffffffffffffffffffffffffffffffffffff167f8be0079c531659141344cd1fd0a4f28419497f9722a3daafe3b4186f6b6457e060405160405180910390a35050565b6000604051905090565b600080fd5b600080fd5b600080fd5b6000601f19601f8301169050919050565b7f4e487b7100000000000000000000000000000000000000000000000000000000600052604160045260246000fd5b610928826108df565b810181811067ffffffffffffffff82111715610947576109466108f0565b5b80604052505050565b600061095a6108c6565b9050610966828261091f565b919050565b600067ffffffffffffffff821115610986576109856108f0565b5b602082029050602081019050919050565b600080fd5b600073ffffffffffffffffffffffffffffffffffffffff82169050919050565b60006109c78261099c565b9050919050565b6109d7816109bc565b81146109e257600080fd5b50565b6000813590506109f4816109ce565b92915050565b6000610a0d610a088461096b565b610950565b90508083825260208201905060208402830185811115610a3057610a2f610997565b5b835b81811015610a595780610a4588826109e5565b845260208401935050602081019050610a32565b5050509392505050565b600082601f830112610a7857610a776108da565b5b8135610a888482602086016109fa565b91505092915050565b600060208284031215610aa757610aa66108d0565b5b600082013567ffffffffffffffff811115610ac557610ac46108d5565b5b610ad184828501610a63565b91505092915050565b60008115159050919050565b610aef81610ada565b82525050565b6000602082019050610b0a6000830184610ae6565b92915050565b600060208284031215610b2657610b256108d0565b5b6000610b34848285016109e5565b91505092915050565b610b46816109bc565b82525050565b6000602082019050610b616000830184610b3d565b92915050565b600082825260208201905092915050565b7f4f776e61626c653a2063616c6c6572206973206e6f7420746865206f776e6572600082015250565b6000610bae602083610b67565b9150610bb982610b78565b602082019050919050565b60006020820190508181036000830152610bdd81610ba1565b9050919050565b7f4e487b7100000000000000000000000000000000000000000000000000000000600052603260045260246000fd5b7f4e487b7100000000000000000000000000000000000000000000000000000000600052601160045260246000fd5b6000819050919050565b6000610c5782610c42565b91507fffffffffffffffffffffffffffffffffffffffffffffffffffffffffffffffff821415610c8a57610c89610c13565b5b600182019050919050565b7f4f776e61626c653a206e6577206f776e657220697320746865207a65726f206160008201527f6464726573730000000000000000000000000000000000000000000000000000602082015250565b6000610cf1602683610b67565b9150610cfc82610c95565b604082019050919050565b60006020820190508181036000830152610d2081610ce4565b905091905056fea2646970667358221220d19f202cdc3f9e4fff0b3012b888ae3ed5321b4642adec8120bc705de9b125bf64736f6c634300080b0033",
  "immutableReferences": {},
  "source": "pragma solidity ^0.8.0;\n\n\nimport \"./Ownable.sol\";\n\n\n/**\n * @title Whitelist\n * @dev The Whitelist contract has a whitelist of addresses, and provides basic authorization control functions.\n * @dev This simplifies the implementation of \"user permissions\".\n */\ncontract Whitelist is Ownable {\n  mapping(address => bool) public whitelist;\n\n  event WhitelistedAddressAdded(address addr);\n  event WhitelistedAddressRemoved(address addr);\n\n  /**\n   * @dev Throws if called by any account that's not whitelisted.\n   */\n  modifier onlyWhitelisted() {\n    require(whitelist[msg.sender]);\n    _;\n  }\n\n  /**\n   * @dev add an address to the whitelist\n   * @param addr address\n   * @return success true if the address was added to the whitelist, false if the address was already in the whitelist\n   */\n  function addAddressToWhitelist(address addr) onlyOwner public returns(bool success) {\n    if (!whitelist[addr]) {\n      whitelist[addr] = true;\n      emit WhitelistedAddressAdded(addr);\n      success = true;\n    }\n  }\n\n  /**\n   * @dev add addresses to the whitelist\n   * @param addrs addresses\n   * @return success true if at least one address was added to the whitelist,\n   * false if all addresses were already in the whitelist\n   */\n  function addAddressesToWhitelist(address[] memory addrs) onlyOwner public returns(bool success) {\n    for (uint256 i = 0; i < addrs.length; i++) {\n      if (addAddressToWhitelist(addrs[i])) {\n        success = true;\n      }\n    }\n  }\n\n  /**\n   * @dev remove an address from the whitelist\n   * @param addr address\n   * @return success true if the address was removed from the whitelist,\n   * false if the address wasn't in the whitelist in the first place\n   */\n  function removeAddressFromWhitelist(address addr) onlyOwner public returns(bool success) {\n    if (whitelist[addr]) {\n      whitelist[addr] = false;\n      emit WhitelistedAddressRemoved(addr);\n      success = true;\n    }\n  }\n\n  /**\n   * @dev remove addresses from the whitelist\n   * @param addrs addresses\n   * @return success true if at least one address was removed from the whitelist,\n   * false if all addresses weren't in the whitelist in the first place\n   */\n  function removeAddressesFromWhitelist(address[] memory addrs) onlyOwner public returns(bool success) {\n    for (uint256 i = 0; i < addrs.length; i++) {\n      if (removeAddressFromWhitelist(addrs[i])) {\n        success = true;\n      }\n    }\n  }\n\n}\n",
  "sourcePath": "/home/maria/Documents/blockchain-developer-bootcamp-final-project/contracts/Whitelist.sol",
  "compiler": {
    "name": "solc",
    "version": "0.8.11+commit.d7f03943.Emscripten.clang"
  },
  "schemaVersion": "3.4.3",
  "updatedAt": "2022-01-11T19:56:41.680Z",
  "devdoc": {
    "details": "The Whitelist contract has a whitelist of addresses, and provides basic authorization control functions.This simplifies the implementation of \"user permissions\".",
    "kind": "dev",
    "methods": {
      "addAddressToWhitelist(address)": {
        "details": "add an address to the whitelist",
        "params": {
          "addr": "address"
        },
        "returns": {
          "success": "true if the address was added to the whitelist, false if the address was already in the whitelist"
        }
      },
      "addAddressesToWhitelist(address[])": {
        "details": "add addresses to the whitelist",
        "params": {
          "addrs": "addresses"
        },
        "returns": {
          "success": "true if at least one address was added to the whitelist, false if all addresses were already in the whitelist"
        }
      },
      "owner()": {
        "details": "Returns the address of the current owner."
      },
      "removeAddressFromWhitelist(address)": {
        "details": "remove an address from the whitelist",
        "params": {
          "addr": "address"
        },
        "returns": {
          "success": "true if the address was removed from the whitelist, false if the address wasn't in the whitelist in the first place"
        }
      },
      "removeAddressesFromWhitelist(address[])": {
        "details": "remove addresses from the whitelist",
        "params": {
          "addrs": "addresses"
        },
        "returns": {
          "success": "true if at least one address was removed from the whitelist, false if all addresses weren't in the whitelist in the first place"
        }
      },
      "renounceOwnership()": {
        "details": "Leaves the contract without owner. It will not be possible to call `onlyOwner` functions anymore. Can only be called by the current owner. NOTE: Renouncing ownership will leave the contract without an owner, thereby removing any functionality that is only available to the owner."
      },
      "transferOwnership(address)": {
        "details": "Transfers ownership of the contract to a new account (`newOwner`). Can only be called by the current owner."
      }
    },
    "title": "Whitelist",
    "version": 1
  },
  "userdoc": {
    "kind": "user",
    "methods": {},
    "version": 1
  }
}